S010000045585F535F50726F2E7372656335
S11300000C944E000C9458000C9458000C94580016
S11300100C9458000C9458000C9458000C945800FC
S11300200C9458000C9458000C9458000C945800EC
S11300300C9498000C9458000C9458000C9458009C
S11300400C9458000C9458000C9458000C945800CC
S11300500C945800B900BE00C300C800CC00CC000A
S1130060CC00CC00CC00CC00CC00CC00CC00CC002C
S1130070CC00CC00CC00CC00CC00CC00CC00CC001C
S1130080CC00CC00CC00CC00CC00CC00CC00CC000C
S1130090CC00CC00B900BE00C300C80011241FBEB0
S11300A0CFE5D8E0DEBFCDBF0E94E2000C94FA0099
S11300B00C940000009769F00197B9F424B381E02F
S11300C090E002C0880F991F6A95E2F7822B84BBE7
S11300D0089524B381E090E002C0880F991F6A95C7
S11300E0E2F78095822384BB089524B381E090E0F5
S11300F002C0880F991F6A95E2F78095822384BB1A
S1130100089595B321E030E002C0220F331F8A9591
S1130110E2F7292B25BB089595B321E030E002C016
S1130120220F331F8A95E2F72095292325BB0895D2
S11301301F920F920FB60F9211242F933F934F9358
S11301405F936F937F938F939F93AF93BF93EF933B
S1130150FF938FB1E82FE695EBBB8E2F90E0FC0167
S1130160E154F109E432F105B8F4E65DFF4F0C9473
S1130170F40082E090E00E9481000EC082E090E0F2
S11301800E948C0009C087E090E00E94810004C0B6
S113019087E090E00E948C00FF91EF91BF91AF91B6
S11301A09F918F917F916F915F914F913F912F918B
S11301B00F900FBE0F901F901895BE988DB1806E52
S11301C08DB908958FEF8ABB0E94DD00789467E0B3
S11301D070E081E090E00E945A0062E070E081E00B
S11301E090E00E945A00FFCFEE0FFF1F0590F4919C
S10B01F0E02D0994F894FFCFFF
S9030000FC
