:100000000C944E000C9463000C9463000C946300F9
:100010000C9463000C9463000C9463000C946300D4
:100020000C9463000C9463000C9463000C946300C4
:100030000C9463000C94F9000C9463000C9463001E
:100040000C9463000C9463000C9463000C946300A4
:100050000C9463001B012901370145015201520133
:1000600052015201520152015201520152015201F8
:1000700052015201520152015201520152015201E8
:1000800052015201520152015201520152015201D8
:10009000520152011B0129013701450111241FBEE4
:1000A000CFE5D8E0DEBFCDBF11E0A0E6B0E0E8E8E4
:1000B000F8E002C005900D92AE32B107D9F70E9468
:1000C00064010C9442040C940000009769F00197BD
:1000D000B9F427B381E090E002C0880F991F6A95B8
:1000E000E2F7822B87BB089527B381E090E002C03E
:1000F000880F991F6A95E2F78095822387BB089540
:1001000027B381E090E002C0880F991F6A95E2F75B
:100110008095822387BB089598B321E030E002C028
:10012000220F331F8A95E2F7292B28BB089598B335
:1001300021E030E002C0220F331F8A95E2F72095BC
:10014000292328BB089583E090E00E948C008FEC67
:1001500097E00197F1F700C0000083E090E00E9473
:1001600097008FEC97E00197F1F700C00000089529
:100170008BBB81E090E00E94970082E090E00E94BB
:1001800097000E94A30008958BBB81E090E00E943D
:100190008C0082E090E00E9497000E94A3000895E6
:1001A00081E00E94B80008958FEF8ABB87B38E600C
:1001B00087BB0E94D00088E390E00E94B8008CE0EA
:1001C00090E00E94B8008FEC97E00197F1F700C033
:1001D00000000895CF93DF93EC018881882331F0EC
:1001E00021960E94C40089918111FBCFDF91CF91AC
:1001F00008951F920F920FB60F9211242F933F93E1
:100200004F935F936F937F938F939F93AF93BF931E
:10021000CF93EF93FF93CCB18C2F0E94EC018C2FE6
:1002200090E0FC01E154F109E432F105D8F5E65D16
:10023000FF4F0C943C040E94D00080E690E00E94A6
:10024000EA0080EC0E94B80082E790E00E94EA0099
:1002500029C00E94D00083E890E00E94EA0080EC70
:100260000E94B80086E990E00E94EA001BC00E944C
:10027000D00083EA90E00E94EA0080EC0E94B8007F
:1002800085EB90E00E94EA000DC00E94D00086EC51
:1002900090E00E94EA0080EC0E94B80089ED90E0B6
:1002A0000E94EA00FF91EF91CF91BF91AF919F9192
:1002B0008F917F916F915F914F913F912F910F900F
:1002C0000FBE0F901F90189580E895E20E942602BD
:1002D00060E070E083E090E00E94F00178940E947A
:1002E000D40086EE90E00E94EA0080EC0E94B80004
:1002F00087EF90E00E94EA002FEF89E698E1215015
:1003000080409040E1F700C000000E94D00089E0EA
:1003100091E00E94EA0080EC0E94B8008DE191E03B
:100320000E94EA00FFCF9DB12DB19C7F922B9DB919
:100330008DB90895009721F0019719F4709A0895E6
:1003400070980895009721F0019719F4779A08950D
:1003500077980895009719F00197D9F008956C9A4D
:1003600065E070E081E090E00E94650064E070E08C
:1003700081E090E00E94650067E070E081E090E03D
:100380000E94650066E070E080E090E00E946500F9
:1003900008956C9865E070E080E090E00E94650050
:1003A00064E070E080E090E00E94650067E070E04B
:1003B00080E090E00E94650066E070E081E090E0FF
:1003C0000E9465000895009719F0019719F00895AB
:1003D0006D9A08956D9808958FB9779BFECF089513
:1003E000CF93DF93EB010E94930180E090E00E94A5
:1003F0009A0180E090E00E94AA01CE010E94E301F0
:1004000080E090E00E94A2016E9ADF91CF91089562
:10041000BC0180E090E00E94410320E030E040E831
:1004200051E40E94CF039B01AC0160E074E284EFD1
:100430009AE40E94990220E030E040E85FE30E94E5
:100440002C020E940B0369B970BD08950E94080236
:100450008AB188698AB908955058BB27AA270E9493
:1004600044020C9495030E94870338F00E948E0387
:1004700020F039F49F3F19F426F40C9484030EF411
:10048000E095E7FB0C947E03E92F0E94A60358F346
:10049000BA17620773078407950720F079F4A6F569
:1004A0000C94C8030EF4E0950B2EBA2FA02D0B016F
:1004B000B90190010C01CA01A0011124FF27591BA9
:1004C00099F0593F50F4503E68F11A16F040A22FAF
:1004D000232F342F4427585FF3CF46953795279520
:1004E000A795F0405395C9F77EF41F16BA0B620B1F
:1004F000730B840BBAF09150A1F0FF0FBB1F661F66
:10050000771F881FC2F70EC0BA0F621F731F841FA8
:1005100048F4879577956795B795F7959E3F08F0CE
:10052000B0CF9395880F08F09927EE0F9795879590
:1005300008950E94AD020C9495030E948E0358F01A
:100540000E94870340F029F45F3F29F00C947E035A
:1005500051110C94C9030C9484030E94A60368F300
:100560009923B1F3552391F3951B550BBB27AA276C
:1005700062177307840738F09F5F5F4F220F331FA6
:10058000441FAA1FA9F335D00E2E3AF0E0E832D06E
:1005900091505040E695001CCAF72BD0FE2F29D071
:1005A000660F771F881FBB1F261737074807AB0743
:1005B000B0E809F0BB0B802DBF01FF2793585F4FB8
:1005C0003AF09E3F510578F00C947E030C94C903D9
:1005D0005F3FE4F3983ED4F3869577956795B7959A
:1005E000F7959F5FC9F7880F911D9695879597F9A5
:1005F0000895E1E0660F771F881FBB1F621773071E
:100600008407BA0720F0621B730B840BBA0BEE1F32
:1006100088F7E09508950E9412036894B1110C9434
:10062000C90308950E94AE0388F09F5798F0B92F30
:100630009927B751B0F0E1F0660F771F881F991F17
:100640001AF0BA95C9F714C0B13091F00E94C803EE
:10065000B1E008950C94C803672F782F8827B85FFE
:1006600039F0B93FCCF3869577956795B395D9F76F
:100670003EF490958095709561957F4F8F4F9F4F79
:100680000895E89409C097FB3EF490958095709585
:1006900061957F4F8F4F9F4F9923A9F0F92F96E9CE
:1006A000BB279395F695879577956795B795F11143
:1006B000F8CFFAF4BB0F11F460FF1BC06F5F7F4FE0
:1006C0008F4F9F4F16C0882311F096E911C07723F2
:1006D00021F09EE8872F762F05C0662371F096E8FB
:1006E000862F70E060E02AF09A95660F771F881FCA
:1006F000DAF7880F9695879597F9089597F99F6788
:1007000080E870E060E008959FEF80EC0895002499
:100710000A941616170618060906089500240A9466
:1007200012161306140605060895092E0394000CEC
:1007300011F4882352F0BB0F40F4BF2B11F460FF7B
:1007400004C06F5F7F4F8F4F9F4F089557FD9058A4
:10075000440F551F59F05F3F71F04795880F97FB85
:10076000991F61F09F3F79F087950895121613063F
:100770001406551FF2CF4695F1DF08C0161617066E
:100780001806991FF1CF86957105610508940895A3
:10079000E894BB2766277727CB0197F908950E9435
:1007A000E2030C9495030E94870338F00E948E03A5
:1007B00020F0952311F00C947E030C9484031124F3
:1007C0000C94C9030E94A60370F3959FC1F3950F83
:1007D00050E0551F629FF001729FBB27F00DB11DC5
:1007E000639FAA27F00DB11DAA1F649F6627B00D55
:1007F000A11D661F829F2227B00DA11D621F739F3E
:10080000B00DA11D621F839FA00D611D221F749F4B
:100810003327A00D611D231F849F600D211D822F92
:10082000762F6A2F11249F5750409AF0F1F08823B9
:100830004AF0EE0FFF1FBB1F661F771F881F9150E6
:100840005040A9F79E3F510580F00C947E030C9414
:10085000C9035F3FE4F3983ED4F386957795679597
:10086000B795F795E7959F5FC1F7FE2B880F911D10
:100870009695879597F90895EE0FFF1F0590F491CF
:08088000E02D0994F894FFCF6C
:1008880041637475615F31206973206163746976AF
:100898006500656E746572204220746F20636C6F0A
:1008A80073650041637475615F3120697320646901
:1008B80073706C617900656E7465722041204F52C7
:1008C80020430041637475615F322069732061635E
:1008D8007469766500656E746572204420746F20B3
:1008E800636C6F73650041637475615F322069736F
:1008F80020646973706C617900656E746572204359
:10090800204F5220410057454C434F4D4520544FEE
:1009180020534D41525400484F4D4520636F6E742B
:10092800726F6C20756E697400706C6561736520F8
:10093800456E74657220616E79206F660041206F84
:0E094800722061206F722043206F72206300C6
:00000001FF
